S01300007465737430332D696E74722E7372656304
S113000045C0000060C000005EC000005CC000008D
S11300105AC000003CC100005BC1000070C1000078
S113002052C0000050C000004EC000004CC0000090
S11300304AC0000048C0000046C0000044C00000A0
S113004042C0000040C000003EC000003CC00000B0
S11300503AC0000038C0000036C0000034C00000C0
S113006032C0000030C000002EC000002CC00000D0
S11300702AC0000028C0000026C0000024C00000E0
S113008022C0000020C000001EC0000011241FBEBA
S1130090CFEFD0E1DEBFCDBF11E0A0E0B1E0E4E7F7
S11300A0F3E000E00BBF02C007900D92A031B1074E
S11300B0D9F721E0A0E1B1E001C01D92AB31B20754
S11300C0E1F7ADD055C19CCF25B32F6025BB25B337
S11300D043E050E0481B590B81E090E002C0880FD8
S11300E0991F4A95E2F78095822385BB62BB0895E8
S11300F00F931F93CF93DF938C01C0E0D0E00DC02A
S1130100F801EC0FFD1F6081CE01DEDF8FE19EE47C
S11301100197F1F700C000002196C430D10584F3A3
S1130120DF91CF911F910F9108954F925F926F923B
S11301307F928F929F92AF92BF92CF92DF92EF9273
S1130140FF92CF93DF93CDB7DEB728970FB6F8941D
S1130150DEBF0FBECDBF4B015C010F2EFAE0CF2EE8
S1130160D12CE12CF12CF02DA7019601DFD02B012D
S11301703C01CA01B901A7019601D8D069837A83E9
S11301808B839C83C501B40124E630E040E050E059
S1130190CDD0CA01B901A7019601C8D06D837E8371
S11301A08F839887C501B40128EE33E040E050E026
S11301B0BDD0CA01B901A7019601B8D0F201E0503F
S11301C0FF4F2081E6E1F1E02083A981BA81A050AC
S11301D0BF4F2C912183AD81BE81A050BF4F2C9184
S11301E02283DB01A050BF4F8C918383CF0180DF3A
S11301F086E191E028960FB6F894DEBF0FBECDBF1E
S1130200DF91CF91FF90EF90DF90CF90BF90AF90B0
S11302109F908F907F906F905F904F9008958FEF95
S113022081BB8FE084BB12B881E08ABB80E789BFC1
S11302308AE28ABF8FB780688FBF7894C0E0D0E02D
S11302408091140190911501009721F0019721F4F8
S1130250219602C0C0E0D0E0BE010D2E000C880B38
S1130260990B63DFC13A26E8D20754F38BB381605C
S11302708BBB8FEF99EF20E0815090402040E1F755
S113028000C000008BB38E7F8BBB2196D9CF1F9209
S11302900F920FB60F9211248F939F9380911401A4
S11302A0909115010196909315018093140180910A
S11302B0140190911501039724F0109215011092E6
S11302C014019F918F910F900FBE0F901F9018955E
S11302D01F920F920FB60F9211248F939F938091C8
S11302E012019091130101969093130180931201CE
S11302F09F918F910F900FBE0F901F9018951F9292
S11303000F920FB60F9211248F939F938091100137
S113031090911101019690931101809310019F9186
S11303208F910F900FBE0F901F901895A1E21A2E77
S1130330AA1BBB1BFD010DC0AA1FBB1FEE1FFF1F85
S1130340A217B307E407F50720F0A21BB30BE40BD5
S1130350F50B661F771F881F991F1A9469F760951C
S11303607095809590959B01AC01BD01CF010895D6
S1070370F894FFCF2B
S11303743F065B4F666D7D277F67777C585E797196
S9030000FC
