S01400007465737430342D54696D65722E73726563BE
S113000045C0000060C000005EC000005CC000008D
S11300105AC0000058C0000056C0000054C0000080
S113002052C0000050C000004EC000004CC0000090
S11300304AC0000048C0000077C0000044C000006F
S113004042C0000040C000003EC000003CC00000B0
S11300503AC0000038C0000036C0000034C00000C0
S113006032C0000030C000002EC000002CC00000D0
S11300702AC0000028C0000026C0000024C00000E0
S113008022C0000020C000001EC0000011241FBEBA
S1130090CFEFD0E1DEBFCDBF11E0A0E0B1E0E0EEF4
S11300A0F2E000E00BBF02C007900D92A631B10749
S11300B0D9F721E0A6E1B1E001C01D92A332B20755
S11300C0E1F702D00BC19CCF8FEF81BB8FE084BBE3
S11300D062E370E085E390E054D087B7846087BF23
S11300E084E08EBD8FB780688FBF789480911A01A9
S11300F090911B01A0911C01B0911D010097A1409A
S1130100B10540F010921A0110921B0110921C01CB
S113011010921D0160911A0170911B0180911C01C4
S113012090911D0178D0E2CF1F920F920FB60F92DB
S113013011248F939F93AF93BF9380911A01909151
S11301401B01A0911C01B0911D010196A11DB11DBF
S113015080931A0190931B01A0931C01B0931D017D
S113016010921601109217011092180110921901A1
S1130170BF91AF919F918F910F900FBE0F901F90E1
S11301801895909305018093040170930301609383
S113019002010895E0910401F091050120812F608E
S11301A02083E0910401F091050123E030E0281B55
S11301B0390B81E090E002C0880F991F2A95E2F77D
S11301C08095908189238083E0910201F09103015D
S11301D0608308950F931F93CF93DF938C01C0E046
S11301E0D0E00DC0F801EC0FFD1F6081CE01D2DF1D
S11301F08FE19EE40197F1F700C000002196809101
S1130200000190910101C817D90764F3DF91CF91E0
S11302101F910F9108950F931F93CF93DF93EB01D9
S1130220CF70DD278B019C01689413F836952795D0
S1130230179507951694D1F7D801AF70BB27072FF0
S1130240182F292F3327F801EF70FF278B019C010A
S11302500F2EFCE03695279517950795FA95D1F75B
S1130260F02DCA5FDE4F4881CEE1D1E04883AA5F1A
S1130270BE4F4C914983EA5FFE4F40814A83F801A7
S1130280EA5FFE4F20812B83611520E1720781050F
S1130290910570F4613021E072078105910558F4ED
S11302A0613171058105910548F082E090E008C054
S11302B084E090E005C083E090E002C081E090E03B
S11302C090930101809300018EE191E083DF8EE140
S11302D091E0DF91CF911F910F910895F894FFCF92
S11302E00400320035003F065B4F666D7D277F6753
S10902F0777C585E797171
S9030000FC
